:020000040000FA
:1000000015EF00F0EA6A080EE96EEF500DE0060EFB
:10001000016E006A002EFED7012EFBD77B0E006E0C
:10002000002EFED7EF2EF3D7000CF86AD09EEA6AB6
:10003000E96AC150C00B0F09C16E070EB46E550EB0
:10004000056ED80E066E956A010E8C6E020E076E56
:10005000960E086ED7DF072EFBD7956A030E8C6EBF
:10006000020E076E960E086ECDDF072EFBD7956A3F
:10007000070E8C6E020E076E960E086EC3DF072EFB
:10008000FBD7956A0F0E8C6E020E076E960E086EE9
:10009000B9DF072EFBD7956A1F0E8C6E020E076E16
:1000A000960E086EAFDF072EFBD7956A3F0E8C6E5B
:1000B000020E076E960E086EA5DF072EFBD7956A17
:1000C0007F0E8C6E020E076E960E086E9BDF072E5B
:0A00D000FBD7D90E066EB5D703006A
:020000040030CA
:0E000000240C1E1E008381000FC00FE00F4075
:00000001FF
;PIC18F4550
